#include <string>
#include <regex>

const std::string SAMPLE_NEW_ORDER_SINGLE = "8=FIX.4.2^A 9=145^A 35=D^A 34=4^A 49=ABC_DEFG01^A 52=20090323-15:40:29^A 56=CCG^A 115=XYZ^A 11=NF 0542/03232009^A 54=1^A 38=100^A 55=CVS^A 40=1^A 59=0^A 47=A^A 60=20090323-15:40:29^A 21=1^A 207=N^A 10=139^A";
const std::string SAMPLE_CANCEL_REPLACE_QTY_CHANGE = "8=FIX.4.2^A 9=197^A 35=G^A 34=118^A 49=ABC_DEFG01^A 52=20090325-15:14:47^A 56=CCG^A 115=XYZ^A 11=NF 0574/03252009^A 37=NF 0573/03252009^A 41=NF 0573/03252009^A 54=1^A 38=2000^A 55=CVS^A 40=2^A 44=25.47^A 59=0^A 47=A^A 60=20090325-15:14:47^A 21=1^A 207=N^A 10=185^A";
const std::string SAMPLE_NEW_ORDER_SINGLE_WITH_GROUP = "8=FIX.4.4^A9=128^A35=D^A49=BROKER1^A52=20230815-10:00:00.000^A56=CLIENTA^A100=2^A55=AAPL^A60=20230815-10:00:00.000^A54=1^A55=MSFT^A60=20230815-10:00:00.000^A54=1^A10=123^A";

const std::regex sampleReg("\\^A\\s*"); 
inline void sampleToBuffer(std::string sample,char *buffer) {
    auto s = std::regex_replace(sample,sampleReg,"\x01");
    strcpy(buffer,s.c_str());
}